{
  "_format": "hh-sol-artifact-1",
  "contractName": "Factory",
  "sourceName": "contracts/Factory.sol",
  "abi": [
    {
      "anonymous": false,
      "inputs": [
        {
          "indexed": false,
          "internalType": "address",
          "name": "NewContract",
          "type": "address"
        }
      ],
      "name": "Deploy",
      "type": "event"
    },
    {
      "inputs": [],
      "name": "create",
      "outputs": [
        {
          "internalType": "address",
          "name": "",
          "type": "address"
        }
      ],
      "stateMutability": "nonpayable",
      "type": "function"
    }
  ],
  "bytecode": "0x608060405234801561001057600080fd5b50612214806100206000396000f3fe608060405234801561001057600080fd5b506004361061002b5760003560e01c8063efc81a8c14610030575b600080fd5b61003861004e565b6040516100459190610119565b60405180910390f35b600080339050600081604051610063906100cb565b61006d9190610119565b604051809103906000f080158015610089573d6000803e3d6000fd5b5090507f55ea6c6b31543d8e2ec6a72f71a79c0f4b72ed0d4757172b043d8f4f4cd84848816040516100bb9190610119565b60405180910390a1809250505090565b6120aa8061013583390190565b600073ffffffffffffffffffffffffffffffffffffffff82169050919050565b6000610103826100d8565b9050919050565b610113816100f8565b82525050565b600060208201905061012e600083018461010a565b9291505056fe6080604052604051620020aa380380620020aa8339818101604052810190620000299190620000db565b80600160006101000a81548173ffffffffffffffffffffffffffffffffffffffff021916908373ffffffffffffffffffffffffffffffffffffffff160217905550506200010d565b600080fd5b600073ffffffffffffffffffffffffffffffffffffffff82169050919050565b6000620000a38262000076565b9050919050565b620000b58162000096565b8114620000c157600080fd5b50565b600081519050620000d581620000aa565b92915050565b600060208284031215620000f457620000f362000071565b5b60006200010484828501620000c4565b91505092915050565b611f8d806200011d6000396000f3fe608060405234801561001057600080fd5b50600436106100935760003560e01c80634a6a0cb2116100665780634a6a0cb214610135578063893d20e814610151578063a6aa57ce1461016f578063cbf9fe5f1461018b578063ef48eee6146101bb57610093565b80631cff79cd14610098578063251c1aa3146100c857806344c9af28146100e65780634a0aee2914610117575b600080fd5b6100b260048036038101906100ad91906116e0565b6101d7565b6040516100bf91906117bb565b60405180910390f35b6100d06102f2565b6040516100dd91906117f6565b60405180910390f35b61010060048036038101906100fb919061183d565b6102f8565b60405161010e929190611885565b60405180910390f35b61011f61036a565b60405161012c91906117f6565b60405180910390f35b61014f600480360381019061014a91906118ae565b610377565b005b610159610628565b6040516101669190611924565b60405180910390f35b6101896004803603810190610184919061183d565b610652565b005b6101a560048036038101906101a0919061193f565b610ac5565b6040516101b291906117f6565b60405180910390f35b6101d560048036038101906101d0919061196c565b610add565b005b6060600160009054906101000a900473ffffffffffffffffffffffffffffffffffffffff1673ffffffffffffffffffffffffffffffffffffffff163373ffffffffffffffffffffffffffffffffffffffff1614610269576040517f08c379a000000000000000000000000000000000000000000000000000000000815260040161026090611a09565b60405180910390fd5b6000808473ffffffffffffffffffffffffffffffffffffffff16846040516102919190611a65565b6000604051808303816000865af19150503d80600081146102ce576040519150601f19603f3d011682016040523d82523d6000602084013e6102d3565b606091505b509150915081156102e7576102e6611095565b5b809250505092915050565b60005481565b6000806002838154811061030f5761030e611a7c565b5b906000526020600020906006020160040160009054906101000a900460ff166002848154811061034257610341611a7c565b5b906000526020600020906006020160040160019054906101000a900460ff1691509150915091565b6000600280549050905090565b600160009054906101000a900473ffffffffffffffffffffffffffffffffffffffff1673ffffffffffffffffffffffffffffffffffffffff163373ffffffffffffffffffffffffffffffffffffffff1614610407576040517f08c379a00000000000000000000000000000000000000000000000000000000081526004016103fe90611a09565b60405180910390fd5b61040f61149d565b8181606001818152505082816040019073ffffffffffffffffffffffffffffffffffffffff16908173ffffffffffffffffffffffffffffffffffffffff16815250508381602001818152505084816000019073ffffffffffffffffffffffffffffffffffffffff16908173ffffffffffffffffffffffffffffffffffffffff1681525050600081608001901515908115158152505060008160a001901515908115158152505060008160e0018181525050600281908060018154018082558091505060019003906000526020600020906006020160009091909190915060008201518160000160006101000a81548173ffffffffffffffffffffffffffffffffffffffff021916908373ffffffffffffffffffffffffffffffffffffffff1602179055506020820151816001015560408201518160020160006101000a81548173ffffffffffffffffffffffffffffffffffffffff021916908373ffffffffffffffffffffffffffffffffffffffff1602179055506060820151816003015560808201518160040160006101000a81548160ff02191690831515021790555060a08201518160040160016101000a81548160ff02191690831515021790555060c08201518160040160026101000a81548173ffffffffffffffffffffffffffffffffffffffff021916908373ffffffffffffffffffffffffffffffffffffffff16021790555060e0820151816005015550505050505050565b6000600160009054906101000a900473ffffffffffffffffffffffffffffffffffffffff16905090565b60006002828154811061066857610667611a7c565b5b9060005260206000209060060201604051806101000160405290816000820160009054906101000a900473ffffffffffffffffffffffffffffffffffffffff1673ffffffffffffffffffffffffffffffffffffffff1673ffffffffffffffffffffffffffffffffffffffff168152602001600182015481526020016002820160009054906101000a900473ffffffffffffffffffffffffffffffffffffffff1673ffffffffffffffffffffffffffffffffffffffff1673ffffffffffffffffffffffffffffffffffffffff168152602001600382015481526020016004820160009054906101000a900460ff161515151581526020016004820160019054906101000a900460ff161515151581526020016004820160029054906101000a900473ffffffffffffffffffffffffffffffffffffffff1673ffffffffffffffffffffffffffffffffffffffff1673ffffffffffffffffffffffffffffffffffffffff1681526020016005820154815250509050600015158160800151151514610825576040517f08c379a000000000000000000000000000000000000000000000000000000000815260040161081c90611af7565b60405180910390fd5b600015158160a00151151514610870576040517f08c379a000000000000000000000000000000000000000000000000000000000815260040161086790611b63565b60405180910390fd5b6000816000015190508073ffffffffffffffffffffffffffffffffffffffff166323b872dd333085602001516040518463ffffffff1660e01b81526004016108ba93929190611b83565b6020604051808303816000875af11580156108d9573d6000803e3d6000fd5b505050506040513d601f19601f820116820180604052508101906108fd9190611be6565b5061091183836040015184606001516111f4565b61091e8260400151611291565b6001826080019015159081151581525050338260c0019073ffffffffffffffffffffffffffffffffffffffff16908173ffffffffffffffffffffffffffffffffffffffff1681525050816002848154811061097c5761097b611a7c565b5b906000526020600020906006020160008201518160000160006101000a81548173ffffffffffffffffffffffffffffffffffffffff021916908373ffffffffffffffffffffffffffffffffffffffff1602179055506020820151816001015560408201518160020160006101000a81548173ffffffffffffffffffffffffffffffffffffffff021916908373ffffffffffffffffffffffffffffffffffffffff1602179055506060820151816003015560808201518160040160006101000a81548160ff02191690831515021790555060a08201518160040160016101000a81548160ff02191690831515021790555060c08201518160040160026101000a81548173ffffffffffffffffffffffffffffffffffffffff021916908373ffffffffffffffffffffffffffffffffffffffff16021790555060e08201518160050155905050505050565b60036020528060005260406000206000915090505481565b600160009054906101000a900473ffffffffffffffffffffffffffffffffffffffff1673ffffffffffffffffffffffffffffffffffffffff163373ffffffffffffffffffffffffffffffffffffffff1614610b6d576040517f08c379a0000000000000000000000000000000000000000000000000000000008152600401610b6490611a09565b60405180910390fd5b600060028381548110610b8357610b82611a7c565b5b9060005260206000209060060201604051806101000160405290816000820160009054906101000a900473ffffffffffffffffffffffffffffffffffffffff1673ffffffffffffffffffffffffffffffffffffffff1673ffffffffffffffffffffffffffffffffffffffff168152602001600182015481526020016002820160009054906101000a900473ffffffffffffffffffffffffffffffffffffffff1673ffffffffffffffffffffffffffffffffffffffff1673ffffffffffffffffffffffffffffffffffffffff168152602001600382015481526020016004820160009054906101000a900460ff161515151581526020016004820160019054906101000a900460ff161515151581526020016004820160029054906101000a900473ffffffffffffffffffffffffffffffffffffffff1673ffffffffffffffffffffffffffffffffffffffff1673ffffffffffffffffffffffffffffffffffffffff1681526020016005820154815250509050600115158160800151151514610d40576040517f08c379a0000000000000000000000000000000000000000000000000000000008152600401610d3790611c5f565b60405180910390fd5b600073ffffffffffffffffffffffffffffffffffffffff168160c0015173ffffffffffffffffffffffffffffffffffffffff1603610db3576040517f08c379a0000000000000000000000000000000000000000000000000000000008152600401610daa90611ccb565b60405180910390fd5b818160e00151610dc39190611d1a565b81606001511015610e09576040517f08c379a0000000000000000000000000000000000000000000000000000000008152600401610e0090611d9a565b60405180910390fd5b6000816040015190508073ffffffffffffffffffffffffffffffffffffffff1663a9059cbb8360c00151856040518363ffffffff1660e01b8152600401610e51929190611dba565b6020604051808303816000875af1158015610e70573d6000803e3d6000fd5b505050506040513d601f19601f82011682018060405250810190610e949190611be6565b50828260e001818151610ea79190611d1a565b9150818152505082600360008373ffffffffffffffffffffffffffffffffffffffff1673ffffffffffffffffffffffffffffffffffffffff1681526020019081526020016000206000828254610efd9190611de3565b9250508190555081606001518260e0015103610f3657600082608001901515908115158152505060018260a00190151590811515815250505b8160028581548110610f4b57610f4a611a7c565b5b906000526020600020906006020160008201518160000160006101000a81548173ffffffffffffffffffffffffffffffffffffffff021916908373ffffffffffffffffffffffffffffffffffffffff1602179055506020820151816001015560408201518160020160006101000a81548173ffffffffffffffffffffffffffffffffffffffff021916908373ffffffffffffffffffffffffffffffffffffffff1602179055506060820151816003015560808201518160040160006101000a81548160ff02191690831515021790555060a08201518160040160016101000a81548160ff02191690831515021790555060c08201518160040160026101000a81548173ffffffffffffffffffffffffffffffffffffffff021916908373ffffffffffffffffffffffffffffffffffffffff16021790555060e0820151816005015590505050505050565b60005b6004805490508110156111f1576000600482815481106110bb576110ba611a7c565b5b9060005260206000200160009054906101000a900473ffffffffffffffffffffffffffffffffffffffff169050600360008273ffffffffffffffffffffffffffffffffffffffff1673ffffffffffffffffffffffffffffffffffffffff168152602001908152602001600020548173ffffffffffffffffffffffffffffffffffffffff166370a08231306040518263ffffffff1660e01b81526004016111619190611924565b602060405180830381865afa15801561117e573d6000803e3d6000fd5b505050506040513d601f19601f820116820180604052508101906111a29190611e2c565b10156111e3576040517f08c379a00000000000000000000000000000000000000000000000000000000081526004016111da90611ecb565b60405180910390fd5b508080600101915050611098565b50565b6111fe828261138d565b80600360008473ffffffffffffffffffffffffffffffffffffffff1673ffffffffffffffffffffffffffffffffffffffff168152602001908152602001600020546112499190611d1a565b600360008473ffffffffffffffffffffffffffffffffffffffff1673ffffffffffffffffffffffffffffffffffffffff16815260200190815260200160002081905550505050565b60005b600480549050811015611325578173ffffffffffffffffffffffffffffffffffffffff16600482815481106112cc576112cb611a7c565b5b9060005260206000200160009054906101000a900473ffffffffffffffffffffffffffffffffffffffff1673ffffffffffffffffffffffffffffffffffffffff1603611318575061138a565b8080600101915050611294565b506004819080600181540180825580915050600190039060005260206000200160009091909190916101000a81548173ffffffffffffffffffffffffffffffffffffffff021916908373ffffffffffffffffffffffffffffffffffffffff1602179055505b50565b6000829050600360008473ffffffffffffffffffffffffffffffffffffffff1673ffffffffffffffffffffffffffffffffffffffff168152602001908152602001600020548173ffffffffffffffffffffffffffffffffffffffff166370a08231306040518263ffffffff1660e01b815260040161140b9190611924565b602060405180830381865afa158015611428573d6000803e3d6000fd5b505050506040513d601f19601f8201168201806040525081019061144c9190611e2c565b6114569190611de3565b821115611498576040517f08c379a000000000000000000000000000000000000000000000000000000000815260040161148f90611f37565b60405180910390fd5b505050565b604051806101000160405280600073ffffffffffffffffffffffffffffffffffffffff16815260200160008152602001600073ffffffffffffffffffffffffffffffffffffffff16815260200160008152602001600015158152602001600015158152602001600073ffffffffffffffffffffffffffffffffffffffff168152602001600081525090565b6000604051905090565b600080fd5b600080fd5b600073ffffffffffffffffffffffffffffffffffffffff82169050919050565b60006115678261153c565b9050919050565b6115778161155c565b811461158257600080fd5b50565b6000813590506115948161156e565b92915050565b600080fd5b600080fd5b6000601f19601f8301169050919050565b7f4e487b7100000000000000000000000000000000000000000000000000000000600052604160045260246000fd5b6115ed826115a4565b810181811067ffffffffffffffff8211171561160c5761160b6115b5565b5b80604052505050565b600061161f611528565b905061162b82826115e4565b919050565b600067ffffffffffffffff82111561164b5761164a6115b5565b5b611654826115a4565b9050602081019050919050565b82818337600083830152505050565b600061168361167e84611630565b611615565b90508281526020810184848401111561169f5761169e61159f565b5b6116aa848285611661565b509392505050565b600082601f8301126116c7576116c661159a565b5b81356116d7848260208601611670565b91505092915050565b600080604083850312156116f7576116f6611532565b5b600061170585828601611585565b925050602083013567ffffffffffffffff81111561172657611725611537565b5b611732858286016116b2565b9150509250929050565b600081519050919050565b600082825260208201905092915050565b60005b8381101561177657808201518184015260208101905061175b565b60008484015250505050565b600061178d8261173c565b6117978185611747565b93506117a7818560208601611758565b6117b0816115a4565b840191505092915050565b600060208201905081810360008301526117d58184611782565b905092915050565b6000819050919050565b6117f0816117dd565b82525050565b600060208201905061180b60008301846117e7565b92915050565b61181a816117dd565b811461182557600080fd5b50565b60008135905061183781611811565b92915050565b60006020828403121561185357611852611532565b5b600061186184828501611828565b91505092915050565b60008115159050919050565b61187f8161186a565b82525050565b600060408201905061189a6000830185611876565b6118a76020830184611876565b9392505050565b600080600080608085870312156118c8576118c7611532565b5b60006118d687828801611585565b94505060206118e787828801611828565b93505060406118f887828801611585565b925050606061190987828801611828565b91505092959194509250565b61191e8161155c565b82525050565b60006020820190506119396000830184611915565b92915050565b60006020828403121561195557611954611532565b5b600061196384828501611585565b91505092915050565b6000806040838503121561198357611982611532565b5b600061199185828601611828565b92505060206119a285828601611828565b9150509250929050565b600082825260208201905092915050565b7f4e6f74206f776e65720000000000000000000000000000000000000000000000600082015250565b60006119f36009836119ac565b91506119fe826119bd565b602082019050919050565b60006020820190508181036000830152611a22816119e6565b9050919050565b600081905092915050565b6000611a3f8261173c565b611a498185611a29565b9350611a59818560208601611758565b80840191505092915050565b6000611a718284611a34565b915081905092915050565b7f4e487b7100000000000000000000000000000000000000000000000000000000600052603260045260246000fd5b7f7265717565737420616c726561647920696e2070726f67726573730000000000600082015250565b6000611ae1601b836119ac565b9150611aec82611aab565b602082019050919050565b60006020820190508181036000830152611b1081611ad4565b9050919050565b7f7265717565737420616c726561647920636f6d706c6574656400000000000000600082015250565b6000611b4d6019836119ac565b9150611b5882611b17565b602082019050919050565b60006020820190508181036000830152611b7c81611b40565b9050919050565b6000606082019050611b986000830186611915565b611ba56020830185611915565b611bb260408301846117e7565b949350505050565b611bc38161186a565b8114611bce57600080fd5b50565b600081519050611be081611bba565b92915050565b600060208284031215611bfc57611bfb611532565b5b6000611c0a84828501611bd1565b91505092915050565b7f72657175657374206e6f7420696e2070726f6772657373000000000000000000600082015250565b6000611c496017836119ac565b9150611c5482611c13565b602082019050919050565b60006020820190508181036000830152611c7881611c3c565b9050919050565b7f6e6f206c656e64657220746f207472616e7366657220746f2e2e000000000000600082015250565b6000611cb5601a836119ac565b9150611cc082611c7f565b602082019050919050565b60006020820190508181036000830152611ce481611ca8565b9050919050565b7f4e487b7100000000000000000000000000000000000000000000000000000000600052601160045260246000fd5b6000611d25826117dd565b9150611d30836117dd565b9250828201905080821115611d4857611d47611ceb565b5b92915050565b7f616d6f756e742065786365737300000000000000000000000000000000000000600082015250565b6000611d84600d836119ac565b9150611d8f82611d4e565b602082019050919050565b60006020820190508181036000830152611db381611d77565b9050919050565b6000604082019050611dcf6000830185611915565b611ddc60208301846117e7565b9392505050565b6000611dee826117dd565b9150611df9836117dd565b9250828203905081811115611e1157611e10611ceb565b5b92915050565b600081519050611e2681611811565b92915050565b600060208284031215611e4257611e41611532565b5b6000611e5084828501611e17565b91505092915050565b7f7472616e73616374696f6e2075736564206c6f636b656420636f6c6c6174657260008201527f616c210000000000000000000000000000000000000000000000000000000000602082015250565b6000611eb56023836119ac565b9150611ec082611e59565b604082019050919050565b60006020820190508181036000830152611ee481611ea8565b9050919050565b7f6e6f7420656e6f75676820636f6c6c61746572616c20746f2072657365727665600082015250565b6000611f216020836119ac565b9150611f2c82611eeb565b602082019050919050565b60006020820190508181036000830152611f5081611f14565b905091905056fea26469706673582212201696f75c795c97366c14ab71f6e203bcfa187778e6dd74438dd87baaf130c5fd64736f6c63430008180033a2646970667358221220b63fe4f0ca90a328aa677060322458d4352ecb91b3f75277bfa9ea1132ce750a64736f6c63430008180033",
  "linkReferences": {},
  "deployedLinkReferences": {}
}